:020000020000FC
:1000000003C17CC032C0189518951895BEC01895CC
:100010001895189518951895189518951895189578
:10002000189504006000000002D1C801019700008B
:1000300000000AC0000000000000000000000000F6
:100040000000000000000197082F092B99F7E2E05B
:10005000F1C0EDD0C80104C00CE414E0E5DF019765
:10006000082F092BC9F7E2E0E5C0BA93AA938A9357
:10007000FA93EA933A922A921A920A927A936A939C
:100080005A934A933A932A931A930A938FB7E2E6C4
:10009000F0E0008111810F5F1F4F00831183A2E602
:1000A000B0E0ED91FC91389734F000E010E0E2E62A
:1000B000F0E000831183E2E6F0E0408101E010E02F
:1000C000B0D00BBB0BB30093600005E010E0C1DFC4
:1000D00000E0009361008FBF099119912991399136
:1000E0004991599169917991099019902990399084
:1000F000E991F9918991A991B99118958A93FA9307
:10010000EA933A922A921A920A927A936A935A93AB
:100110004A933A932A931A930A938FB7E2E6F0E050
:10012000008111810150104000831183E2E6F0E06C
:10013000008111810F3F2FEF120731F407E010E02B
:10014000E2E6F0E000831183E2E6F0E0408101E0C6
:1001500010E067D00BBB0BB30093600005E010E02C
:1001600078DF00E0009361008FBF09911991299118
:1001700039914991599169917991099019902990F2
:100180003990E991F99189911895FA93EA931A9324
:100190000A931FB700916100002349F000916000AD
:1001A0000BBBE1E6F0E000810395008307C000E0AF
:1001B0000BBBE1E6F0E000810A9500830FE70DBD7F
:1001C0000FEF0CBD1FBF09911991E991F991189595
:1001D0000FEF0ABB01E00BBB0BB3009360000BB742
:1001E000006C0BBF0AE005BF00EC0ABF00E80FBFC0
:1001F00004E00EBD00E809BF0FE70DBD0FEF0CBD19
:10020000089500008895FECF03EA0DBF00E00EBF01
:10021000C4E8D0E016D0002309F023D0D9DFF1DF05
:10022000F0CF4A951AF0000F111FFBCF08959A9353
:100230008A93089599818881F0E0EC0FFD1FEF010A
:10024000089501E0089520E006D0E9F7089525918A
:1002500002D0E9F708952D9301501040202F212B53
:10026000089582E290E0FC0105911491FC01329620
:10027000A591B491FC01349625913491422F432BE2
:1002800019F0F901E4DF01C0DEDF069610E08832E4
:06029000910748F30895F8
:0400000300000000F9
:00000001FF
